:100000000C942A000C943F000C943F000C943F0089
:100010000C943F000C943F000C943F000C943F0064
:100020000C943F000C943F000C943F000C943F0054
:100030000C943F000C943F000C943F000C943F0044
:100040000C943F000C943F000C943F000C943F0034
:100050000C943F0011241FBECFE5D8E0DEBFCDBF1A
:1000600010E0A0E6B0E0E4EFF0E002C005900D92F1
:10007000AC36B107D9F70E9441000C9478000C947B
:1000800000000E94510080E690E00E9460002FE393
:100090008DE093E0215080409040E1F700C00000E7
:1000A000F2CF88E18AB980B5866080BD83E389B9E3
:1000B00010BC0895882319F05D9BFECF8CB908957C
:1000C0001F93CF93DF93EC01009749F40DC0FE011D
:1000D000E10FF11D80810E945A001F5FF8CF8881D7
:1000E0000E945A0011E0F3CFDF91CF911F91089544
:0400F000F894FFCFB2
:0C00F400414C59204D4F48414D454400FF
:00000001FF
