:100000000C942A000C9447000C9447000C94470071
:100010000C9447000C9447000C9447000C94470044
:100020000C9447000C9447000C9447000C94470034
:100030000C9447000C9447000C9447000C94470024
:100040000C9447000C9447000C9447000C94470014
:100050000C94470011241FBECFE5D4E0DEBFCDBF16
:1000600011E0A0E6B0E0E4E0FEE002C005900D92F1
:10007000A434B107D9F711E0A4E4B1E001C01D92A6
:10008000AB34B107E1F70E945D000C9400070C94BB
:10009000000017B883E886B9089597B1907E97B9A4
:1000A00097B18770982B97B9369A349BFECF349AC4
:1000B00024B135B1822F932F08952F923F924F9202
:1000C0005F926F927F928F929F92AF92BF92CF92E8
:1000D000DF92EF92FF920F931F93DF93CF93CDB7F1
:1000E000DEB728970FB6F894DEBF0FBECDBF84E011
:1000F00089838A838B838C830E94D7040F2EFDEA29
:100100006F2EF0E07F2EF02D8E010B5F1F4F0F2E14
:10011000FEE74F2EF0E05F2EF02DB8C00E945C0588
:1001200080914501813079F580914A01853359F5F7
:100130001092450180E060E040E650E00E94A60495
:100140000E942603682E8FE996E8A1E08150904036
:10015000A040E1F700C000000E94D30480E790E0D7
:100160000E947904862D90E00E94B1048FED93E9FE
:10017000A4E081509040A040E1F700C0000081E081
:1001800080934801E9C00E948903C82E8A30B8F4E0
:10019000F801EA0DF11D80836A2D6B5F80E00E94FB
:1001A0008E048C2D90E00E94B104A3948FE798E315
:1001B000A1E081509040A040E1F700C000009C2DDC
:1001C000933209F0ABCFAA2DA43089F00E94D3045A
:1001D00080E064E0A2010E94A6048FE996E8A1E015
:1001E00081509040A040E1F700C000004FC09D81C9
:1001F0008981981761F49E818A81981741F49F81C3
:100200008B81981721F498858C81981789F00E942A
:10021000D30480E064E0A2010E94A6048FE996E87E
:10022000A1E081509040A040E1F700C000002EC046
:100230000E94D30480E060E049E850E00E94A604F8
:100240008FE996E8A1E081509040A040E1F700C01E
:1002500000000E94BD03682E0E94D304862D90E00A
:100260000E94B1048FE996E8A1E081509040A0403F
:10027000E1F700C0000089E990E00E9447050E9474
:100280005C05809145018130D9F412C00E94D304ED
:1002900080E060E0A3010E94A6048FE996E8A1E057
:1002A00081509040A040E1F700C00000AA2436CF62
:1002B00080914A01863321F483E08093480144C051
:1002C00082E08093480100E010E00F2EF3EBCF2E88
:1002D000F0E0DF2EF02D0F2EF9E9AF2EF0E0BF2E6B
:1002E000F02D0E94D30480E060E0A6010E94A604E5
:1002F000C8010E94B1048FE799EAA3E081509040C1
:10030000A040E1F700C00000C5010E944705A9EC2C
:10031000B8E01197F1F700C000000E945C058091E1
:100320004501813041F480914A01863321F483E014
:100330008093480109C00F5F1F4F0B30110589F6EC
:1003400080914801833019F40E94E60409C082308C
:1003500019F40E940F0504C0813011F40E94E604D4
:100360008FB780688FBF77248824992401E00F2EEF
:10037000F1EC2F2EF0E03F2EF02D0F2EF1EDAF2EF1
:10038000F0E0BF2EF02D0F2EF7EC4F2EF0E05F2E99
:10039000F02D0E948903833209F429C184E00E9470
:1003A0004D009C014EEE52E00E94AC060E941E06DB
:1003B00020E030ED4FEB54E40E948A050E94F205E4
:1003C000C62ED72EE82EF92E6C147D048E049F04C1
:1003D00018F40093490102C010924901879B03C0A1
:1003E0000093470102C0109247019E9B03C00093F7
:1003F000460102C01092460180914801833019F0F5
:10040000813009F042C080E067E00E948E04C6019E
:100410000E94B10480E06EE00E948E048DE00E9494
:100420003F05C1010E944705C6010E94680587EA91
:1004300091E60197F1F700C00000809149018823FF
:1004400091F0C2010E947904DF9A8DE00E943F057D
:100450008AEC90E00E944705A7EAB1E61197F1F710
:1004600000C000002CC0C5010E947904DF988DE017
:100470000E943F0584ED90E00E94470587EA91E6DF
:100480000197F1F700C000001AC08230C1F480E08B
:1004900067E00E948E04C6010E94B10480E06EE015
:1004A0000E948E0480914901882329F0C2010E9494
:1004B0007904DF9A04C0C5010E947904DF98809115
:1004C0004701882311F1929A80914801823041F4CA
:1004D000802F67E00E948E04C2010E94790436C01A
:1004E000802F67E00E948E04C2010E9479048DE093
:1004F0000E943F058CED90E00E944705A7EAB1E617
:100500001197F1F700C0000021C092988091480136
:10051000823041F4802F67E00E948E04C5010E9462
:10052000790414C0802F67E00E948E04C5010E94E8
:1005300079048DE00E943F0585EE90E00E9447051A
:1005400087EA91E60197F1F700C00000809146012B
:10055000882311F1939A80914801823041F4802FD1
:100560006EE00E948E04C2010E94790412CF802F97
:100570006EE00E948E04C2010E9479048DE00E9408
:100580003F058FEE90E00E944705A7EAB1E611977C
:10059000F1F700C00000FDCE9398809148018230B1
:1005A00041F4802F6EE00E948E04C5010E94790400
:1005B00014C0802F6EE00E948E04C5010E94790451
:1005C0008DE00E943F0587EF90E00E94470587EA93
:1005D00091E60197F1F700C000008FE996E8A1E0ED
:1005E00081509040A040E1F700C00000D2CE8FB70C
:1005F0008F778FBF0E94D30481E060E040E051E03C
:100600000E94A6048FE996E8A1E081509040A040A6
:10061000E1F700C0000080E090E028960FB6F89463
:10062000DEBF0FBECDBFCF91DF911F910F91FF9025
:10063000EF90DF90CF90BF90AF909F908F907F9082
:100640006F905F904F903F902F9008950F931F935E
:100650000E944305182F0E94D304812F0E94420458
:1006600087EA91E60197F1F700C000000E94430578
:10067000082F0E94D304802F0E94420487EA91E64B
:100680000197F1F700C00000802F8051110F912FCA
:10069000990F990F190F810F1F910F910895E82F4E
:1006A000F0E0EE0FFF1FEE0FFF1FE60FF11DE05F02
:1006B000FE4F8081089560E0E0E1F0E0A0E0B0E06E
:1006C00070E0CF01062E02C0880F991F0A94E2F74E
:1006D00087BB809588BBB09B10C09D01822F8F5F28
:1006E00046B32F5F3F4F50E0022E02C0559547950D
:1006F0000A94E2F740FD05C001C080E00E944F036C
:1007000008952330310551F76F5F6430D0F2672FC1
:10071000D8CFCF93DF93E0E0F0E0A0E1B0E0C0E01D
:10072000D0E06E2FCD010E2E02C0880F991F0A94C3
:10073000E2F787BB809588BBB09B10C09E01822FDB
:100740008F5F46B32F5F3F4F50E0022E02C055959A
:1007500047950A94E2F740FD05C001C080E00E9481
:100760004F0308C02330310551F73196E430F105CD
:10077000C1F684E6DF91CF9108950F931F930E94F5
:10078000D30480E060E040E251E00E94A6048FE9DB
:1007900096E8A1E081509040A040E1F700C0000041
:1007A0000E945B03082F90E00E94B1048FE996E855
:1007B000A1E081509040A040E1F700C000000E94FD
:1007C0005B03182F90E00E94B1048FE996E8A1E046
:1007D00081509040A040E1F700C00000000F802F42
:1007E000880F880F080F802F810F1F910F91089598
:1007F00094989598E9EFF0E03197F1F700C0000088
:10080000969AE9EFF0E03197F1F700C00000982FD9
:1008100092959F709BBBE9EFF0E03197F1F700C034
:1008200000009698E9EFF0E03197F1F700C0000082
:10083000969AE9EFF0E03197F1F700C000008F7071
:100840008BBB89EF90E00197F1F700C0000096980C
:10085000E9EFF0E03197F1F700C00000089581B3AF
:10086000806781BB8AB38F608ABB82E00E94F803F5
:1008700088E20E94F8038CE00E94F80381E00E9465
:10088000F8030895949A9598E9EFF0E03197F1F71D
:1008900000C00000969AE9EFF0E03197F1F700C050
:1008A0000000982F92959F709BBBE9EFF0E0319785
:1008B000F1F700C000009698E9EFF0E03197F1F70A
:1008C00000C00000969AE9EFF0E03197F1F700C020
:1008D00000008F708BBB89EF90E00197F1F700C0AB
:1008E00000009698E9EFF0E03197F1F700C00000C2
:1008F00008951F93CF93DF93EC018881882351F0F3
:1009000010E00E9442041F5FFE01E10FF11D808193
:100910008823B9F7DF91CF911F910895813039F085
:10092000813070F0823031F0833059F406C0962F58
:10093000905C07C0962F905F04C0962F905B01C01B
:10094000962F892F80680E94F8030895CF93DF9334
:10095000EA010E948E04CE010E947904DF91CF91BA
:1009600008950F931F93DF93CF93CDB7DEB76097B2
:100970000FB6F894DEBF0FBECDBF8E010F5F1F4FC5
:10098000B8014AE050E00E94BB06C8010E94790409
:1009900060960FB6F894DEBF0FBECDBFCF91DF914A
:1009A0001F910F91089581E00E94F80308950E941D
:1009B00035050E942F040E9449008A9A8B9AD79A83
:1009C000A6988F9892989398DF9808958DE00E944A
:1009D0003F050E94D3048BE291E00E94790480E0FD
:1009E0006AE00E948E0483E40E94420480E06BE08F
:1009F0000E948E0483E391E00E94790481E060E02C
:100A00000E948E0487E391E00E94790481E06AE00D
:100A10000E948E048FE391E00E94790408950E9461
:100A2000D3048BE291E00E94790480E06AE00E94A6
:100A30008E0483E40E94420480E06BE00E948E04F6
:100A400083E391E00E94790481E060E00E948E04DB
:100A500087E391E00E94790481E06AE00E948E04BD
:100A60008FE391E00E947904089582E08BB988E1D8
:100A70008AB986E880BD10BC8CE089B908955D9B79
:100A8000FECF8CB908955F9BFECF8CB108951F9364
:100A9000CF93DF93EC018881882351F010E00E940E
:100AA0003F051F5FFE01E10FF11D80818823B9F72B
:100AB000DF91CF911F9108955F9B07C081E08093E4
:100AC00045018CB180934A01089510924501089523
:100AD0000F931F93DF93CF93CDB7DEB760970FB619
:100AE000F894DEBF0FBECDBF8E010F5F1F4FB80160
:100AF0004AE050E00E94BB06C8010E94470560968C
:100B00000FB6F894DEBF0FBECDBFCF91DF911F911E
:100B10000F9108950CD0E6C0DED040F0D5D030F073
:100B200021F45F3F19F0C7C0511110C1CAC0EBD00A
:100B300098F39923C9F35523B1F3951B550BBB27A4
:100B4000AA2762177307840738F09F5F5F4F220F51
:100B5000331F441FAA1FA9F333D00E2E3AF0E0E84A
:100B600030D091505040E695001CCAF729D0FE2F96
:100B700027D0660F771F881FBB1F26173707480728
:100B8000AB07B0E809F0BB0B802DBF01FF279358DE
:100B90005F4F2AF09E3F510568F08DC0D7C05F3F80
:100BA000ECF3983EDCF3869577956795B795F795C6
:100BB0009F5FC9F7880F911D9695879597F90895BE
:100BC000E1E0660F771F881FBB1F6217730784075A
:100BD000BA0720F0621B730B840BBA0BEE1F88F769
:100BE000E095089598D088F09F5790F0B92F9927F5
:100BF000B751A0F0D1F0660F771F881F991F1AF028
:100C0000BA95C9F712C0B13081F09FD0B1E0089514
:100C10009CC0672F782F8827B85F39F0B93FCCF395
:100C2000869577956795B395D9F73EF4909580951D
:100C3000709561957F4F8F4F9F4F0895E89409C03D
:100C400097FB3EF490958095709561957F4F8F4FFF
:100C50009F4F9923A9F0F92F96E9BB279395F69515
:100C6000879577956795B795F111F8CFFAF4BB0F93
:100C700011F460FF1BC06F5F7F4F8F4F9F4F16C0F7
:100C8000882311F096E911C0772321F09EE8872F81
:100C9000762F05C0662371F096E8862F70E060E03D
:100CA0002AF09A95660F771F881FDAF7880F9695B6
:100CB000879597F9089597F99F6780E870E060E05D
:100CC00008959FEF80EC089500240A9416161706E5
:100CD00018060906089500240A941216130614062D
:100CE00005060895092E0394000C11F4882352F090
:100CF000BB0F40F4BF2B11F460FF04C06F5F7F4F48
:100D00008F4F9F4F089557FD9058440F551F59F02E
:100D10005F3F71F04795880F97FB991F61F09F3FE8
:100D200079F087950895121613061406551FF2CF11
:100D30004695F1DF08C0161617061806991FF1CF61
:100D400086957105610508940895E894BB27662788
:100D50007727CB0197F90895539FC001429FB001B7
:100D6000529F700D811D1124911D349F700D811DA6
:100D70001124911D0895FB019F01E8944230C4F0B5
:100D80004532B4F44A3029F497FB1EF490958195CE
:100D90009F4F642F77270E94EC06805D8A330CF00A
:100DA000895D8193CB010097A1F716F45DE2519321
:100DB0001082C9010C94DC06DC01FC01672F7191E3
:100DC0007723E1F7329704C07C916D937083629131
:100DD000AE17BF07C8F30895AA1BBB1B51E107C09C
:100DE000AA1FBB1FA617B70710F0A61BB70B881FBB
:100DF000991F5A95A9F780959095BC01CD0108954A
:040E0000F894FFCF94
:100E0400504320656E74657265642070617373006D
:100E14005468726573686F6C64206973200077721C
:100E24006F6E6720706173730070617373206973F0
:100E340020636F72726563740070632077696C6CF1
:100E4400206265206F66666C696E652E0070617342
:100E5400733A006E756D206F662074726965733A1B
:100E64000054454D503D004F4E0066616E204F4E7C
:100E74000046460066616E204F464600616C617212
:100E84006D204F4E00616C61726D204F46460062CA
:100E94006F78204F4E2E00626F78204F46462E000A
:100EA40073797374656D2064697361626C65640041
:100EB4004101020304050642070809432A002344AA
:100EC4007468726573686F6C643A0054656D702061
:100ED4003D200066616E00616C61726D3A200062B3
:040EE4006F783A00E9
:00000001FF
